{
  "contractName": "lottery",
  "abi": [
    {
      "inputs": [],
      "stateMutability": "nonpayable",
      "type": "constructor"
    },
    {
      "inputs": [],
      "name": "duration",
      "outputs": [
        {
          "internalType": "uint256",
          "name": "",
          "type": "uint256"
        }
      ],
      "stateMutability": "view",
      "type": "function",
      "constant": true
    },
    {
      "inputs": [],
      "name": "expiration",
      "outputs": [
        {
          "internalType": "uint256",
          "name": "",
          "type": "uint256"
        }
      ],
      "stateMutability": "view",
      "type": "function",
      "constant": true
    },
    {
      "inputs": [],
      "name": "lastWinner",
      "outputs": [
        {
          "internalType": "address",
          "name": "",
          "type": "address"
        }
      ],
      "stateMutability": "view",
      "type": "function",
      "constant": true
    },
    {
      "inputs": [],
      "name": "lastWinningAmount",
      "outputs": [
        {
          "internalType": "uint256",
          "name": "",
          "type": "uint256"
        }
      ],
      "stateMutability": "view",
      "type": "function",
      "constant": true
    },
    {
      "inputs": [],
      "name": "lotteryOpearator",
      "outputs": [
        {
          "internalType": "address",
          "name": "",
          "type": "address"
        }
      ],
      "stateMutability": "view",
      "type": "function",
      "constant": true
    },
    {
      "inputs": [],
      "name": "maxTickets",
      "outputs": [
        {
          "internalType": "uint256",
          "name": "",
          "type": "uint256"
        }
      ],
      "stateMutability": "view",
      "type": "function",
      "constant": true
    },
    {
      "inputs": [],
      "name": "opeartorCommision",
      "outputs": [
        {
          "internalType": "uint256",
          "name": "",
          "type": "uint256"
        }
      ],
      "stateMutability": "view",
      "type": "function",
      "constant": true
    },
    {
      "inputs": [],
      "name": "ticketCommission",
      "outputs": [
        {
          "internalType": "uint256",
          "name": "",
          "type": "uint256"
        }
      ],
      "stateMutability": "view",
      "type": "function",
      "constant": true
    },
    {
      "inputs": [],
      "name": "ticketPrice",
      "outputs": [
        {
          "internalType": "uint256",
          "name": "",
          "type": "uint256"
        }
      ],
      "stateMutability": "view",
      "type": "function",
      "constant": true
    },
    {
      "inputs": [
        {
          "internalType": "uint256",
          "name": "",
          "type": "uint256"
        }
      ],
      "name": "tickets",
      "outputs": [
        {
          "internalType": "address",
          "name": "",
          "type": "address"
        }
      ],
      "stateMutability": "view",
      "type": "function",
      "constant": true
    },
    {
      "inputs": [
        {
          "internalType": "address",
          "name": "",
          "type": "address"
        }
      ],
      "name": "winnings",
      "outputs": [
        {
          "internalType": "uint256",
          "name": "",
          "type": "uint256"
        }
      ],
      "stateMutability": "view",
      "type": "function",
      "constant": true
    },
    {
      "inputs": [],
      "name": "getTickets",
      "outputs": [
        {
          "internalType": "address[]",
          "name": "",
          "type": "address[]"
        }
      ],
      "stateMutability": "view",
      "type": "function",
      "constant": true
    },
    {
      "inputs": [],
      "name": "IsWinner",
      "outputs": [
        {
          "internalType": "bool",
          "name": "",
          "type": "bool"
        }
      ],
      "stateMutability": "view",
      "type": "function",
      "constant": true
    },
    {
      "inputs": [
        {
          "internalType": "address",
          "name": "_address",
          "type": "address"
        }
      ],
      "name": "getWinningsForAddress",
      "outputs": [
        {
          "internalType": "uint256",
          "name": "",
          "type": "uint256"
        }
      ],
      "stateMutability": "view",
      "type": "function",
      "constant": true
    },
    {
      "inputs": [],
      "name": "butTicket",
      "outputs": [],
      "stateMutability": "payable",
      "type": "function",
      "payable": true
    },
    {
      "inputs": [],
      "name": "remainingTickets",
      "outputs": [
        {
          "internalType": "uint256",
          "name": "",
          "type": "uint256"
        }
      ],
      "stateMutability": "view",
      "type": "function",
      "constant": true
    },
    {
      "inputs": [],
      "name": "currentWinningReward",
      "outputs": [
        {
          "internalType": "uint256",
          "name": "",
          "type": "uint256"
        }
      ],
      "stateMutability": "view",
      "type": "function",
      "constant": true
    },
    {
      "inputs": [],
      "name": "restartdraw",
      "outputs": [],
      "stateMutability": "nonpayable",
      "type": "function"
    },
    {
      "inputs": [],
      "name": "DrawWinnerTicket",
      "outputs": [],
      "stateMutability": "nonpayable",
      "type": "function"
    },
    {
      "inputs": [],
      "name": "checkWinningsAmount",
      "outputs": [
        {
          "internalType": "uint256",
          "name": "",
          "type": "uint256"
        }
      ],
      "stateMutability": "view",
      "type": "function",
      "constant": true
    },
    {
      "inputs": [],
      "name": "withdrawWinnings",
      "outputs": [],
      "stateMutability": "nonpayable",
      "type": "function"
    },
    {
      "inputs": [],
      "name": "refundAll",
      "outputs": [],
      "stateMutability": "nonpayable",
      "type": "function"
    },
    {
      "inputs": [],
      "name": "withdrawCommission",
      "outputs": [],
      "stateMutability": "nonpayable",
      "type": "function"
    }
  ],
  "bytecode": "0x60806040523480156200001157600080fd5b5033600160006101000a81548173ffffffffffffffffffffffffffffffffffffffff021916908373ffffffffffffffffffffffffffffffffffffffff16021790555061070842620000639190620000a8565b600081905550620000e3565b6000819050919050565b7f4e487b7100000000000000000000000000000000000000000000000000000000600052601160045260246000fd5b6000620000b5826200006f565b9150620000c2836200006f565b9250828201905080821115620000dd57620000dc62000079565b5b92915050565b6117c480620000f36000396000f3fe6080604052600436106101405760003560e01c806350b44712116100b6578063cc42e83a1161006f578063cc42e83a146103d5578063dd64e534146103ec578063e2946a3814610429578063ea3a149914610454578063fe18818414610491578063fe474be6146104bc57610140565b806350b44712146102c15780635d504832146102fe5780636032a4f91461032957806396c85ef3146103545780639b8947031461037f578063a3b9f8b5146103aa57610140565b806338e771ab1161010857806338e771ab1461021c5780633e25e8371461023357806344a124bb1461024a5780634665096d146102545780634788af7c1461027f5780634ed026221461029657610140565b80630789c607146101455780630fb5a6b4146101705780631209b1f61461019b57806314f1ada8146101c65780631d8d605b146101f1575b600080fd5b34801561015157600080fd5b5061015a6104d3565b6040516101679190610f54565b60405180910390f35b34801561017c57600080fd5b50610185610525565b6040516101929190610f54565b60405180910390f35b3480156101a757600080fd5b506101b061052b565b6040516101bd9190610f54565b60405180910390f35b3480156101d257600080fd5b506101db610536565b6040516101e89190610f54565b60405180910390f35b3480156101fd57600080fd5b5061020661053c565b6040516102139190610f54565b60405180910390f35b34801561022857600080fd5b5061023161055b565b005b34801561023f57600080fd5b50610248610665565b005b610252610750565b005b34801561026057600080fd5b5061026961088b565b6040516102769190610f54565b60405180910390f35b34801561028b57600080fd5b50610294610891565b005b3480156102a257600080fd5b506102ab610aef565b6040516102b8919061105f565b60405180910390f35b3480156102cd57600080fd5b506102e860048036038101906102e391906110b2565b610b7d565b6040516102f591906110ee565b60405180910390f35b34801561030a57600080fd5b50610313610bbc565b6040516103209190610f54565b60405180910390f35b34801561033557600080fd5b5061033e610bd5565b60405161034b9190610f54565b60405180910390f35b34801561036057600080fd5b50610369610be0565b6040516103769190611124565b60405180910390f35b34801561038b57600080fd5b50610394610c29565b6040516103a19190610f54565b60405180910390f35b3480156103b657600080fd5b506103bf610c2e565b6040516103cc91906110ee565b60405180910390f35b3480156103e157600080fd5b506103ea610c54565b005b3480156103f857600080fd5b50610413600480360381019061040e919061116b565b610d74565b6040516104209190610f54565b60405180910390f35b34801561043557600080fd5b5061043e610dbd565b60405161044b9190610f54565b60405180910390f35b34801561046057600080fd5b5061047b6004803603810190610476919061116b565b610dc3565b6040516104889190610f54565b60405180910390f35b34801561049d57600080fd5b506104a6610ddb565b6040516104b391906110ee565b60405180910390f35b3480156104c857600080fd5b506104d1610e01565b005b6000803390506000600560008373ffffffffffffffffffffffffffffffffffffffff1673ffffffffffffffffffffffffffffffffffffffff168152602001908152602001600020549050809250505090565b61070881565b662386f26fc1000081565b60025481565b6000662386f26fc1000060068054905061055691906111c7565b905090565b600054421161059f576040517f08c379a000000000000000000000000000000000000000000000000000000000815260040161059690611266565b60405180910390fd5b60005b600680549050811015610654576000600682815481106105c5576105c4611286565b5b9060005260206000200160009054906101000a900473ffffffffffffffffffffffffffffffffffffffff1690508073ffffffffffffffffffffffffffffffffffffffff166108fc662386f26fc100009081150290604051600060405180830381858888f1935050505015801561063f573d6000803e3d6000fd5b5050808061064c906112b5565b9150506105a2565b50600660006106639190610efd565b565b600160009054906101000a900473ffffffffffffffffffffffffffffffffffffffff1673ffffffffffffffffffffffffffffffffffffffff163373ffffffffffffffffffffffffffffffffffffffff16146106f5576040517f08c379a00000000000000000000000000000000000000000000000000000000081526004016106ec9061136f565b60405180910390fd5b6000339050600060025490508173ffffffffffffffffffffffffffffffffffffffff166108fc829081150290604051600060405180830381858888f19350505050158015610747573d6000803e3d6000fd5b50600090505050565b6000662386f26fc100003461076591906113be565b146107a5576040517f08c379a000000000000000000000000000000000000000000000000000000000815260040161079c90611461565b60405180910390fd5b6000662386f26fc10000346107ba9190611481565b90506107c4610bbc565b811115610806576040517f08c379a00000000000000000000000000000000000000000000000000000000081526004016107fd906114fe565b60405180910390fd5b60005b81811015610887576006339080600181540180825580915050600190039060005260206000200160009091909190916101000a81548173ffffffffffffffffffffffffffffffffffffffff021916908373ffffffffffffffffffffffffffffffffffffffff160217905550808061087f906112b5565b915050610809565b5050565b60005481565b600160009054906101000a900473ffffffffffffffffffffffffffffffffffffffff1673ffffffffffffffffffffffffffffffffffffffff163373ffffffffffffffffffffffffffffffffffffffff1614610921576040517f08c379a00000000000000000000000000000000000000000000000000000000081526004016109189061136f565b60405180910390fd5b600060068054905011610969576040517f08c379a000000000000000000000000000000000000000000000000000000000815260040161096090611590565b60405180910390fd5b60006006805490504361097c91906115b0565b40905060004282604051602001610994929190611630565b6040516020818303038152906040528051906020012060001c90506000600680549050826109c291906113be565b90506000600682815481106109da576109d9611286565b5b9060005260206000200160009054906101000a900473ffffffffffffffffffffffffffffffffffffffff16905080600360006101000a81548173ffffffffffffffffffffffffffffffffffffffff021916908373ffffffffffffffffffffffffffffffffffffffff16021790555066038d7ea4c68000662386f26fc10000610a6291906115b0565b600680549050610a7291906111c7565b600560008373ffffffffffffffffffffffffffffffffffffffff1673ffffffffffffffffffffffffffffffffffffffff1681526020019081526020016000206000828254610ac0919061165c565b9250508190555060066000610ad59190610efd565b61070842610ae3919061165c565b60008190555050505050565b60606006805480602002602001604051908101604052809291908181526020018280548015610b7357602002820191906000526020600020905b8160009054906101000a900473ffffffffffffffffffffffffffffffffffffffff1673ffffffffffffffffffffffffffffffffffffffff1681526020019060010190808311610b29575b5050505050905090565b60068181548110610b8d57600080fd5b906000526020600020016000915054906101000a900473ffffffffffffffffffffffffffffffffffffffff1681565b60006006805490506064610bd091906115b0565b905090565b66038d7ea4c6800081565b600080600560003373ffffffffffffffffffffffffffffffffffffffff1673ffffffffffffffffffffffffffffffffffffffff1681526020019081526020016000205411905090565b606481565b600160009054906101000a900473ffffffffffffffffffffffffffffffffffffffff1681565b610c5c610be0565b610c9b576040517f08c379a0000000000000000000000000000000000000000000000000000000008152600401610c9290611702565b60405180910390fd5b60003390506000600560008373ffffffffffffffffffffffffffffffffffffffff1673ffffffffffffffffffffffffffffffffffffffff1681526020019081526020016000205490506000600560008473ffffffffffffffffffffffffffffffffffffffff1673ffffffffffffffffffffffffffffffffffffffff168152602001908152602001600020819055508173ffffffffffffffffffffffffffffffffffffffff166108fc829081150290604051600060405180830381858888f19350505050158015610d6f573d6000803e3d6000fd5b505050565b6000600560008373ffffffffffffffffffffffffffffffffffffffff1673ffffffffffffffffffffffffffffffffffffffff168152602001908152602001600020549050919050565b60045481565b60056020528060005260406000206000915090505481565b600360009054906101000a900473ffffffffffffffffffffffffffffffffffffffff1681565b600160009054906101000a900473ffffffffffffffffffffffffffffffffffffffff1673ffffffffffffffffffffffffffffffffffffffff163373ffffffffffffffffffffffffffffffffffffffff1614610e91576040517f08c379a0000000000000000000000000000000000000000000000000000000008152600401610e889061136f565b60405180910390fd5b600060068054905014610ed9576040517f08c379a0000000000000000000000000000000000000000000000000000000008152600401610ed09061176e565b60405180910390fd5b60066000610ee79190610efd565b61070842610ef5919061165c565b600081905550565b5080546000825590600052602060002090810190610f1b9190610f1e565b50565b5b80821115610f37576000816000905550600101610f1f565b5090565b6000819050919050565b610f4e81610f3b565b82525050565b6000602082019050610f696000830184610f45565b92915050565b600081519050919050565b600082825260208201905092915050565b6000819050602082019050919050565b600073ffffffffffffffffffffffffffffffffffffffff82169050919050565b6000610fc682610f9b565b9050919050565b610fd681610fbb565b82525050565b6000610fe88383610fcd565b60208301905092915050565b6000602082019050919050565b600061100c82610f6f565b6110168185610f7a565b935061102183610f8b565b8060005b838110156110525781516110398882610fdc565b975061104483610ff4565b925050600181019050611025565b5085935050505092915050565b600060208201905081810360008301526110798184611001565b905092915050565b600080fd5b61108f81610f3b565b811461109a57600080fd5b50565b6000813590506110ac81611086565b92915050565b6000602082840312156110c8576110c7611081565b5b60006110d68482850161109d565b91505092915050565b6110e881610fbb565b82525050565b600060208201905061110360008301846110df565b92915050565b60008115159050919050565b61111e81611109565b82525050565b60006020820190506111396000830184611115565b92915050565b61114881610fbb565b811461115357600080fd5b50565b6000813590506111658161113f565b92915050565b60006020828403121561118157611180611081565b5b600061118f84828501611156565b91505092915050565b7f4e487b7100000000000000000000000000000000000000000000000000000000600052601160045260246000fd5b60006111d282610f3b565b91506111dd83610f3b565b92508282026111eb81610f3b565b9150828204841483151761120257611201611198565b5b5092915050565b600082825260208201905092915050565b7f43616e6e6f7420726566756e64206265666f72652065787069726174696f6e00600082015250565b6000611250601f83611209565b915061125b8261121a565b602082019050919050565b6000602082019050818103600083015261127f81611243565b9050919050565b7f4e487b7100000000000000000000000000000000000000000000000000000000600052603260045260246000fd5b60006112c082610f3b565b91507fffffffffffffffffffffffffffffffffffffffffffffffffffffffffffffffff82036112f2576112f1611198565b5b600182019050919050565b7f4f6e6c79206f70657261746f722063616e2063616c6c20746869732066756e6360008201527f74696f6e00000000000000000000000000000000000000000000000000000000602082015250565b6000611359602483611209565b9150611364826112fd565b604082019050919050565b600060208201905081810360008301526113888161134c565b9050919050565b7f4e487b7100000000000000000000000000000000000000000000000000000000600052601260045260246000fd5b60006113c982610f3b565b91506113d483610f3b565b9250826113e4576113e361138f565b5b828206905092915050565b7f56616c75652073686f756c6420626520696e206d756c7469706c65206f66207460008201527f69636b6574207072696365000000000000000000000000000000000000000000602082015250565b600061144b602b83611209565b9150611456826113ef565b604082019050919050565b6000602082019050818103600083015261147a8161143e565b9050919050565b600061148c82610f3b565b915061149783610f3b565b9250826114a7576114a661138f565b5b828204905092915050565b7f4e6f7420656e6f756768207469636b657473206c656674000000000000000000600082015250565b60006114e8601783611209565b91506114f3826114b2565b602082019050919050565b60006020820190508181036000830152611517816114db565b9050919050565b7f43616e6e6f7420647261772077696e6e65722077697468206e6f207469636b6560008201527f7473000000000000000000000000000000000000000000000000000000000000602082015250565b600061157a602283611209565b91506115858261151e565b604082019050919050565b600060208201905081810360008301526115a98161156d565b9050919050565b60006115bb82610f3b565b91506115c683610f3b565b92508282039050818111156115de576115dd611198565b5b92915050565b6000819050919050565b6115ff6115fa82610f3b565b6115e4565b82525050565b6000819050919050565b6000819050919050565b61162a61162582611605565b61160f565b82525050565b600061163c82856115ee565b60208201915061164c8284611619565b6020820191508190509392505050565b600061166782610f3b565b915061167283610f3b565b925082820190508082111561168a57611689611198565b5b92915050565b7f4f6e6c792077696e6e65722063616e2063616c6c20746869732066756e63746960008201527f6f6e000000000000000000000000000000000000000000000000000000000000602082015250565b60006116ec602283611209565b91506116f782611690565b604082019050919050565b6000602082019050818103600083015261171b816116df565b9050919050565b7f43616e6e6f74207265737461727420647261772077697468207469636b657473600082015250565b6000611758602083611209565b915061176382611722565b602082019050919050565b600060208201905081810360008301526117878161174b565b905091905056fea2646970667358221220717025a48d1741992386967c6e898b4da48c9e19763b0f7c72ff8033ad975a4b64736f6c63430008110033",
  "immutableReferences": {},
  "source": "// SPDX-License-Identifier: MIT\npragma solidity >=0.4.22 <0.9.0;\n\ncontract lottery {\n \n uint256 public constant ticketPrice = 0.01 ether;\n  uint256 public constant maxTickets = 100;\n  uint256 public constant ticketCommission = 0.001 ether;\n  uint256 public constant duration = 30 minutes;\n\n  uint256 public expiration;\n  address public lotteryOpearator;\n  uint256 public opeartorCommision;\n  address public lastWinner;\n  uint256 public lastWinningAmount;\n\n  mapping(address => uint256) public winnings;\n  address[] public tickets;\n\n\n  constructor() {\n    lotteryOpearator = msg.sender;\n    expiration = block.timestamp + duration;\n  }\n\n\n  // modifiers\n\n  modifier onlyOperator() {\n    require(msg.sender == lotteryOpearator, \"Only operator can call this function\");\n    _;\n  }\n\n  modifier isWinner(){\n    require(IsWinner(), \"Only winner can call this function\");\n    _;\n  }\n\n  function getTickets() public view returns(address[] memory){\n    return tickets;\n  }\n\n  function IsWinner() public view returns(bool){\n    return winnings[msg.sender] > 0;\n  }\n\n  function getWinningsForAddress(address _address) public view returns(uint256){\n    return winnings[_address];\n  }\n\n  function butTicket()public payable{\n    require(msg.value % ticketPrice == 0, \"Value should be in multiple of ticket price\");\n\n    uint256 numOfTickets = msg.value / ticketPrice;\n\n    require(numOfTickets <= remainingTickets(), \"Not enough tickets left\");\n\n    for(uint256 i = 0; i < numOfTickets; i++){\n      tickets.push(msg.sender);\n    }\n  }\n\n  function remainingTickets() public view returns(uint256){\n    return maxTickets - tickets.length;\n  }\n\n  function currentWinningReward() public view returns(uint256){\n    return tickets.length * ticketPrice;\n  }\n\n\n  function restartdraw() public onlyOperator{\n    require(tickets.length == 0, 'Cannot restart draw with tickets');\n\n    delete tickets;\n    expiration = block.timestamp + duration;\n  }\n\n  function DrawWinnerTicket() public onlyOperator{\n    require(tickets.length > 0, 'Cannot draw winner with no tickets');\n\n    bytes32 blockHash = blockhash(block.number - tickets.length);\n    uint256 randomNumber = uint256(keccak256(abi.encodePacked(block.timestamp,blockHash)));\n\n    uint256 winningTicket = randomNumber % tickets.length;\n\n    address winner = tickets[winningTicket];\n    lastWinner = winner;\n\n    winnings[winner] += tickets.length*(ticketPrice - ticketCommission);\n\n    delete tickets;\n    expiration = block.timestamp + duration;\n  }\n\n  function checkWinningsAmount() public view returns(uint256){\n    address payable winner = payable(msg.sender);\n\n    uint winningsAmount = winnings[winner];\n\n    return winningsAmount;\n  }\n\n  function withdrawWinnings() public isWinner{\n    address payable winner = payable(msg.sender);\n\n    uint winningsAmount = winnings[winner];\n\n    winnings[winner] = 0;\n\n    winner.transfer(winningsAmount);\n  }\n\n  function refundAll() public {\n    require(block.timestamp > expiration, \"Cannot refund before expiration\");\n\n    for(uint256 i = 0; i < tickets.length; i++){\n      address payable ticketOwner = payable(tickets[i]);\n      ticketOwner.transfer(ticketPrice);\n    }\n\n    delete tickets;\n  }\n\n  function withdrawCommission() public onlyOperator{\n    address payable operator = payable(msg.sender);\n    uint256 opeartorTotalCommision = opeartorCommision;\n\n    operator.transfer(opeartorTotalCommision);\n\n    opeartorTotalCommision = 0;\n  }\n}\n",
  "sourcePath": "F:\\google-2.0\\backend\\contracts\\lottery.sol",
  "compiler": {
    "name": "solc",
    "version": "0.8.17+commit.8df45f5f.Emscripten.clang"
  },
  "schemaVersion": "3.4.10",
  "updatedAt": "2022-11-22T12:05:00.991Z",
  "networkType": "ethereum",
  "devdoc": {
    "kind": "dev",
    "methods": {},
    "version": 1
  },
  "userdoc": {
    "kind": "user",
    "methods": {},
    "version": 1
  }
}